{
  "contractName": "Stored",
  "abi": [
    {
      "inputs": [],
      "stateMutability": "nonpayable",
      "type": "constructor"
    },
    {
      "anonymous": false,
      "inputs": [
        {
          "indexed": false,
          "internalType": "string",
          "name": "_ipfsHash",
          "type": "string"
        },
        {
          "indexed": false,
          "internalType": "string",
          "name": "_address",
          "type": "string"
        }
      ],
      "name": "ipfsSent",
      "type": "event"
    },
    {
      "anonymous": false,
      "inputs": [
        {
          "indexed": false,
          "internalType": "string",
          "name": "response",
          "type": "string"
        }
      ],
      "name": "storedResponse",
      "type": "event"
    },
    {
      "inputs": [
        {
          "internalType": "string",
          "name": "",
          "type": "string"
        }
      ],
      "name": "ipfsStored",
      "outputs": [
        {
          "internalType": "string",
          "name": "",
          "type": "string"
        }
      ],
      "stateMutability": "view",
      "type": "function"
    },
    {
      "inputs": [
        {
          "internalType": "string",
          "name": "_address",
          "type": "string"
        },
        {
          "internalType": "string",
          "name": "_ipfsHash",
          "type": "string"
        }
      ],
      "name": "sendIPFS",
      "outputs": [],
      "stateMutability": "nonpayable",
      "type": "function"
    },
    {
      "inputs": [
        {
          "internalType": "string",
          "name": "_address",
          "type": "string"
        }
      ],
      "name": "getHash",
      "outputs": [
        {
          "internalType": "string",
          "name": "",
          "type": "string"
        }
      ],
      "stateMutability": "view",
      "type": "function"
    }
  ],
  "bytecode": "0x608060405234801561001057600080fd5b506107e2806100206000396000f3fe608060405234801561001057600080fd5b50600436106100415760003560e01c80633bc8650914610046578063570fd0f2146100625780635b6beeb914610092575b600080fd5b610060600480360381019061005b91906104b5565b6100c2565b005b61007c6004803603810190610077919061046c565b6101ee565b60405161008991906105ae565b60405180910390f35b6100ac60048036038101906100a7919061046c565b6102a4565b6040516100b991906105ae565b60405180910390f35b6000826040516100d29190610597565b908152602001604051809103902080546100eb906106c6565b80601f0160208091040260200160405190810160405280929190818152602001828054610117906106c6565b80156101645780601f1061013957610100808354040283529160200191610164565b820191906000526020600020905b81548152906001019060200180831161014757829003601f168201915b50505050506000819050600081511461017c57600080fd5b8260008560405161018d9190610597565b908152602001604051809103902090805190602001906101ae929190610359565b507fe20751acac1c1604f322f90c67a302e99b44a472645e625269c08832cded234083856040516101e09291906105d0565b60405180910390a150505050565b6000818051602081018201805184825260208301602085012081835280955050505050506000915090508054610223906106c6565b80601f016020809104026020016040519081016040528092919081815260200182805461024f906106c6565b801561029c5780601f106102715761010080835404028352916020019161029c565b820191906000526020600020905b81548152906001019060200180831161027f57829003601f168201915b505050505081565b6060600080836040516102b79190610597565b908152602001604051809103902080546102d0906106c6565b80601f01602080910402602001604051908101604052809291908181526020018280546102fc906106c6565b80156103495780601f1061031e57610100808354040283529160200191610349565b820191906000526020600020905b81548152906001019060200180831161032c57829003601f168201915b5050505050905080915050919050565b828054610365906106c6565b90600052602060002090601f01602090048101928261038757600085556103ce565b82601f106103a057805160ff19168380011785556103ce565b828001600101855582156103ce579182015b828111156103cd5782518255916020019190600101906103b2565b5b5090506103db91906103df565b5090565b5b808211156103f85760008160009055506001016103e0565b5090565b600061040f61040a8461062c565b610607565b90508281526020810184848401111561042b5761042a61078c565b5b610436848285610684565b509392505050565b600082601f83011261045357610452610787565b5b81356104638482602086016103fc565b91505092915050565b60006020828403121561048257610481610796565b5b600082013567ffffffffffffffff8111156104a05761049f610791565b5b6104ac8482850161043e565b91505092915050565b600080604083850312156104cc576104cb610796565b5b600083013567ffffffffffffffff8111156104ea576104e9610791565b5b6104f68582860161043e565b925050602083013567ffffffffffffffff81111561051757610516610791565b5b6105238582860161043e565b9150509250929050565b60006105388261065d565b6105428185610668565b9350610552818560208601610693565b61055b8161079b565b840191505092915050565b60006105718261065d565b61057b8185610679565b935061058b818560208601610693565b80840191505092915050565b60006105a38284610566565b915081905092915050565b600060208201905081810360008301526105c8818461052d565b905092915050565b600060408201905081810360008301526105ea818561052d565b905081810360208301526105fe818461052d565b90509392505050565b6000610611610622565b905061061d82826106f8565b919050565b6000604051905090565b600067ffffffffffffffff82111561064757610646610758565b5b6106508261079b565b9050602081019050919050565b600081519050919050565b600082825260208201905092915050565b600081905092915050565b82818337600083830152505050565b60005b838110156106b1578082015181840152602081019050610696565b838111156106c0576000848401525b50505050565b600060028204905060018216806106de57607f821691505b602082108114156106f2576106f1610729565b5b50919050565b6107018261079b565b810181811067ffffffffffffffff821117156107205761071f610758565b5b80604052505050565b7f4e487b7100000000000000000000000000000000000000000000000000000000600052602260045260246000fd5b7f4e487b7100000000000000000000000000000000000000000000000000000000600052604160045260246000fd5b600080fd5b600080fd5b600080fd5b600080fd5b6000601f19601f830116905091905056fea26469706673582212204bab8eb383bcceb2a9c2eefcf408aafb4e0236ed2fab3616377f8ae6400d115064736f6c63430008070033",
  "immutableReferences": {},
  "source": "// SPDX-License-Identifier: MIT\r\npragma solidity >=0.4.22 <0.9.0;\r\n\r\ncontract Stored {\r\n //Structure\r\n mapping(string => string) public ipfsStored;\r\n\r\n //Events\r\n event ipfsSent(string _ipfsHash, string _address);\r\n event storedResponse(string response);\r\n  \r\n //Modifiers\r\n modifier notFull(string memory _string){\r\n   bytes memory stringTest = bytes(_string);\r\n   require(stringTest.length == 0);\r\n   _;\r\n }\r\n\r\n //An emty Constructor\r\n constructor() {}\r\n\r\n //Function 1 - sendIPFS\r\n function sendIPFS(string memory _address, string memory _ipfsHash) \r\n notFull(ipfsStored[_address]) public {\r\n   ipfsStored[_address] = _ipfsHash;\r\n   emit ipfsSent(_ipfsHash, _address);\r\n }\r\n\r\n //Function 2 - Retrieve/Get the Hash\r\n function getHash(string memory _address) public view returns(string memory){\r\n   string memory ipfs_hash=ipfsStored[_address];\r\n   //emit storedResponse(ipfs_hash);\r\n   return ipfs_hash;\r\n }\r\n}\r\n",
  "sourcePath": "D:/devapps/portfolio/music-rest-dapp/contracts/StoredMusic.sol",
  "compiler": {
    "name": "solc",
    "version": "0.8.7+commit.e28d00a7.Emscripten.clang"
  },
  "schemaVersion": "3.3.4",
  "updatedAt": "2021-12-13T07:49:10.011Z",
  "devdoc": {
    "kind": "dev",
    "methods": {},
    "version": 1
  },
  "userdoc": {
    "kind": "user",
    "methods": {},
    "version": 1
  }
}